S01000004D61646C696768742E73726563EA
S11300000C942A000C9434000C9434000C943400A6
S11300100C9434000C9434000C9434000C9434008C
S11300200C9434000C9434000C9434000C9434007C
S11300300C9434000C9434000C9434000C9434006C
S11300400C9434000C9434000C9434000C9434005C
S11300500C94340011241FBECFE5D4E0DEBFCDBF25
S11300600E9436000C9453000C94000081E084BB81
S113007085B3817085BB81E085BB2FEF84E39CE071
S1130080215080409040E1F700C0000085B38170AA
S113009085BB2FEF84E39CE0215080409040E1F742
S10D00A000C00000E8CFF894FFCF81
S9030000FC
